{
  "contractName": "Mycontract",
  "abi": [
    {
      "inputs": [],
      "payable": false,
      "stateMutability": "nonpayable",
      "type": "constructor"
    },
    {
      "anonymous": false,
      "inputs": [
        {
          "indexed": false,
          "internalType": "uint256",
          "name": "amount",
          "type": "uint256"
        },
        {
          "indexed": false,
          "internalType": "address payable",
          "name": "doubtAsker",
          "type": "address"
        },
        {
          "indexed": false,
          "internalType": "address payable",
          "name": "doubtSolver",
          "type": "address"
        },
        {
          "indexed": false,
          "internalType": "string",
          "name": "topic",
          "type": "string"
        },
        {
          "indexed": false,
          "internalType": "string",
          "name": "id",
          "type": "string"
        },
        {
          "indexed": false,
          "internalType": "bool",
          "name": "isCompleted",
          "type": "bool"
        }
      ],
      "name": "SessionCreated",
      "type": "event"
    },
    {
      "anonymous": false,
      "inputs": [
        {
          "indexed": false,
          "internalType": "uint256",
          "name": "amount",
          "type": "uint256"
        },
        {
          "indexed": false,
          "internalType": "address payable",
          "name": "doubtAsker",
          "type": "address"
        },
        {
          "indexed": false,
          "internalType": "address payable",
          "name": "doubtSolver",
          "type": "address"
        },
        {
          "indexed": false,
          "internalType": "string",
          "name": "topic",
          "type": "string"
        },
        {
          "indexed": false,
          "internalType": "string",
          "name": "id",
          "type": "string"
        },
        {
          "indexed": false,
          "internalType": "bool",
          "name": "isCompleted",
          "type": "bool"
        }
      ],
      "name": "SessionEnded",
      "type": "event"
    },
    {
      "constant": true,
      "inputs": [],
      "name": "name",
      "outputs": [
        {
          "internalType": "string",
          "name": "",
          "type": "string"
        }
      ],
      "payable": false,
      "stateMutability": "view",
      "type": "function"
    },
    {
      "constant": true,
      "inputs": [
        {
          "internalType": "string",
          "name": "",
          "type": "string"
        }
      ],
      "name": "sessions",
      "outputs": [
        {
          "internalType": "uint256",
          "name": "amount",
          "type": "uint256"
        },
        {
          "internalType": "address payable",
          "name": "doubtAsker",
          "type": "address"
        },
        {
          "internalType": "address payable",
          "name": "doubtSolver",
          "type": "address"
        },
        {
          "internalType": "string",
          "name": "topic",
          "type": "string"
        },
        {
          "internalType": "string",
          "name": "id",
          "type": "string"
        },
        {
          "internalType": "bool",
          "name": "isCompleted",
          "type": "bool"
        }
      ],
      "payable": false,
      "stateMutability": "view",
      "type": "function"
    },
    {
      "constant": true,
      "inputs": [],
      "name": "balance",
      "outputs": [
        {
          "internalType": "uint256",
          "name": "",
          "type": "uint256"
        }
      ],
      "payable": false,
      "stateMutability": "view",
      "type": "function"
    },
    {
      "constant": false,
      "inputs": [
        {
          "internalType": "uint256",
          "name": "amount",
          "type": "uint256"
        },
        {
          "internalType": "address payable",
          "name": "doubtAsker",
          "type": "address"
        },
        {
          "internalType": "address payable",
          "name": "doubtSolver",
          "type": "address"
        },
        {
          "internalType": "string",
          "name": "topic",
          "type": "string"
        },
        {
          "internalType": "string",
          "name": "id",
          "type": "string"
        }
      ],
      "name": "createSession",
      "outputs": [],
      "payable": true,
      "stateMutability": "payable",
      "type": "function"
    },
    {
      "constant": true,
      "inputs": [
        {
          "internalType": "string",
          "name": "id",
          "type": "string"
        }
      ],
      "name": "getSesionData",
      "outputs": [
        {
          "internalType": "uint256",
          "name": "",
          "type": "uint256"
        },
        {
          "internalType": "address",
          "name": "",
          "type": "address"
        },
        {
          "internalType": "address",
          "name": "",
          "type": "address"
        },
        {
          "internalType": "string",
          "name": "",
          "type": "string"
        },
        {
          "internalType": "string",
          "name": "",
          "type": "string"
        },
        {
          "internalType": "bool",
          "name": "",
          "type": "bool"
        }
      ],
      "payable": false,
      "stateMutability": "view",
      "type": "function"
    },
    {
      "constant": false,
      "inputs": [
        {
          "internalType": "string",
          "name": "id",
          "type": "string"
        }
      ],
      "name": "endSession",
      "outputs": [],
      "payable": false,
      "stateMutability": "nonpayable",
      "type": "function"
    },
    {
      "constant": false,
      "inputs": [
        {
          "internalType": "string",
          "name": "id",
          "type": "string"
        }
      ],
      "name": "refund",
      "outputs": [],
      "payable": false,
      "stateMutability": "nonpayable",
      "type": "function"
    }
  ],
  "bytecode": "0x60806040523480156200001157600080fd5b506040518060400160405280601681526020017f446f7562742053657373696f6e20436f6e747261637400000000000000000000815250600090805190602001906200005f92919062000066565b5062000115565b828054600181600116156101000203166002900490600052602060002090601f016020900481019282601f10620000a957805160ff1916838001178555620000da565b82800160010185558215620000da579182015b82811115620000d9578251825591602001919060010190620000bc565b5b509050620000e99190620000ed565b5090565b6200011291905b808211156200010e576000816000905550600101620000f4565b5090565b90565b611e1580620001256000396000f3fe6080604052600436106100705760003560e01c80636c0994ca1161004e5780636c0994ca1461050d578063b69ef8a8146105d5578063cd2d415114610600578063fe5f2e881461079c57610070565b806306fdde03146100755780631865d961146101055780634f4ba348146102e8575b600080fd5b34801561008157600080fd5b5061008a610864565b6040518080602001828103825283818151815260200191508051906020019080838360005b838110156100ca5780820151818401526020810190506100af565b50505050905090810190601f1680156100f75780820380516001836020036101000a031916815260200191505b509250505060405180910390f35b34801561011157600080fd5b506101896004803603602081101561012857600080fd5b810190808035906020019064010000000081111561014557600080fd5b82018360208201111561015757600080fd5b8035906020019184600183028401116401000000008311171561017957600080fd5b9091929391929390505050610902565b604051808781526020018673ffffffffffffffffffffffffffffffffffffffff1673ffffffffffffffffffffffffffffffffffffffff1681526020018573ffffffffffffffffffffffffffffffffffffffff1673ffffffffffffffffffffffffffffffffffffffff168152602001806020018060200184151515158152602001838103835286818151815260200191508051906020019080838360005b83811015610241578082015181840152602081019050610226565b50505050905090810190601f16801561026e5780820380516001836020036101000a031916815260200191505b50838103825285818151815260200191508051906020019080838360005b838110156102a757808201518184015260208101905061028c565b50505050905090810190601f1680156102d45780820380516001836020036101000a031916815260200191505b509850505050505050505060405180910390f35b3480156102f457600080fd5b506103ae6004803603602081101561030b57600080fd5b810190808035906020019064010000000081111561032857600080fd5b82018360208201111561033a57600080fd5b8035906020019184600183028401116401000000008311171561035c57600080fd5b91908080601f016020809104026020016040519081016040528093929190818152602001838380828437600081840152601f19601f820116905080830192505050505050509192919290505050610b9e565b604051808781526020018673ffffffffffffffffffffffffffffffffffffffff1673ffffffffffffffffffffffffffffffffffffffff1681526020018573ffffffffffffffffffffffffffffffffffffffff1673ffffffffffffffffffffffffffffffffffffffff168152602001806020018060200184151515158152602001838103835286818151815260200191508051906020019080838360005b8381101561046657808201518184015260208101905061044b565b50505050905090810190601f1680156104935780820380516001836020036101000a031916815260200191505b50838103825285818151815260200191508051906020019080838360005b838110156104cc5780820151818401526020810190506104b1565b50505050905090810190601f1680156104f95780820380516001836020036101000a031916815260200191505b509850505050505050505060405180910390f35b34801561051957600080fd5b506105d36004803603602081101561053057600080fd5b810190808035906020019064010000000081111561054d57600080fd5b82018360208201111561055f57600080fd5b8035906020019184600183028401116401000000008311171561058157600080fd5b91908080601f016020809104026020016040519081016040528093929190818152602001838380828437600081840152601f19601f820116905080830192505050505050509192919290505050610d6d565b005b3480156105e157600080fd5b506105ea611366565b6040518082815260200191505060405180910390f35b61079a600480360360a081101561061657600080fd5b8101908080359060200190929190803573ffffffffffffffffffffffffffffffffffffffff169060200190929190803573ffffffffffffffffffffffffffffffffffffffff1690602001909291908035906020019064010000000081111561067d57600080fd5b82018360208201111561068f57600080fd5b803590602001918460018302840111640100000000831117156106b157600080fd5b91908080601f016020809104026020016040519081016040528093929190818152602001838380828437600081840152601f19601f8201169050808301925050505050505091929192908035906020019064010000000081111561071457600080fd5b82018360208201111561072657600080fd5b8035906020019184600183028401116401000000008311171561074857600080fd5b91908080601f016020809104026020016040519081016040528093929190818152602001838380828437600081840152601f19601f82011690508083019250505050505050919291929050505061136e565b005b3480156107a857600080fd5b50610862600480360360208110156107bf57600080fd5b81019080803590602001906401000000008111156107dc57600080fd5b8201836020820111156107ee57600080fd5b8035906020019184600183028401116401000000008311171561081057600080fd5b91908080601f016020809104026020016040519081016040528093929190818152602001838380828437600081840152601f19601f8201169050808301925050505050505091929192905050506116de565b005b60008054600181600116156101000203166002900480601f0160208091040260200160405190810160405280929190818152602001828054600181600116156101000203166002900480156108fa5780601f106108cf576101008083540402835291602001916108fa565b820191906000526020600020905b8154815290600101906020018083116108dd57829003601f168201915b505050505081565b60008060006060806000610914611cd7565b6001898960405180838380828437808301925050509250505090815260200160405180910390206040518060c0016040529081600082015481526020016001820160009054906101000a900473ffffffffffffffffffffffffffffffffffffffff1673ffffffffffffffffffffffffffffffffffffffff1673ffffffffffffffffffffffffffffffffffffffff1681526020016002820160009054906101000a900473ffffffffffffffffffffffffffffffffffffffff1673ffffffffffffffffffffffffffffffffffffffff1673ffffffffffffffffffffffffffffffffffffffff168152602001600382018054600181600116156101000203166002900480601f016020809104026020016040519081016040528092919081815260200182805460018160011615610100020316600290048015610a955780601f10610a6a57610100808354040283529160200191610a95565b820191906000526020600020905b815481529060010190602001808311610a7857829003601f168201915b50505050508152602001600482018054600181600116156101000203166002900480601f016020809104026020016040519081016040528092919081815260200182805460018160011615610100020316600290048015610b375780601f10610b0c57610100808354040283529160200191610b37565b820191906000526020600020905b815481529060010190602001808311610b1a57829003601f168201915b505050505081526020016005820160009054906101000a900460ff1615151515815250509050806000015181602001518260400151836060015184608001518560a00151849450839350829250819150965096509650965096509650509295509295509295565b6001818051602081018201805184825260208301602085012081835280955050505050506000915090508060000154908060010160009054906101000a900473ffffffffffffffffffffffffffffffffffffffff16908060020160009054906101000a900473ffffffffffffffffffffffffffffffffffffffff1690806003018054600181600116156101000203166002900480601f016020809104026020016040519081016040528092919081815260200182805460018160011615610100020316600290048015610cb25780601f10610c8757610100808354040283529160200191610cb2565b820191906000526020600020905b815481529060010190602001808311610c9557829003601f168201915b505050505090806004018054600181600116156101000203166002900480601f016020809104026020016040519081016040528092919081815260200182805460018160011615610100020316600290048015610d505780601f10610d2557610100808354040283529160200191610d50565b820191906000526020600020905b815481529060010190602001808311610d3357829003601f168201915b5050505050908060050160009054906101000a900460ff16905086565b610d75611cd7565b6001826040518082805190602001908083835b60208310610dab5780518252602082019150602081019050602083039250610d88565b6001836020036101000a03801982511681845116808217855250505050505090500191505090815260200160405180910390206040518060c0016040529081600082015481526020016001820160009054906101000a900473ffffffffffffffffffffffffffffffffffffffff1673ffffffffffffffffffffffffffffffffffffffff1673ffffffffffffffffffffffffffffffffffffffff1681526020016002820160009054906101000a900473ffffffffffffffffffffffffffffffffffffffff1673ffffffffffffffffffffffffffffffffffffffff1673ffffffffffffffffffffffffffffffffffffffff168152602001600382018054600181600116156101000203166002900480601f016020809104026020016040519081016040528092919081815260200182805460018160011615610100020316600290048015610f385780601f10610f0d57610100808354040283529160200191610f38565b820191906000526020600020905b815481529060010190602001808311610f1b57829003601f168201915b50505050508152602001600482018054600181600116156101000203166002900480601f016020809104026020016040519081016040528092919081815260200182805460018160011615610100020316600290048015610fda5780601f10610faf57610100808354040283529160200191610fda565b820191906000526020600020905b815481529060010190602001808311610fbd57829003601f168201915b505050505081526020016005820160009054906101000a900460ff16151515158152505090506000816040015190508073ffffffffffffffffffffffffffffffffffffffff166108fc83600001519081150290604051600060405180830381858888f19350505050158015611053573d6000803e3d6000fd5b5060018260a0019015159081151581525050816001846040518082805190602001908083835b6020831061109c5780518252602082019150602081019050602083039250611079565b6001836020036101000a03801982511681845116808217855250505050505090500191505090815260200160405180910390206000820151816000015560208201518160010160006101000a81548173ffffffffffffffffffffffffffffffffffffffff021916908373ffffffffffffffffffffffffffffffffffffffff16021790555060408201518160020160006101000a81548173ffffffffffffffffffffffffffffffffffffffff021916908373ffffffffffffffffffffffffffffffffffffffff1602179055506060820151816003019080519060200190611183929190611d3b565b5060808201518160040190805190602001906111a0929190611d3b565b5060a08201518160050160006101000a81548160ff0219169083151502179055509050507fb795cddc9ade85a4e77e4b65075da4ccc028698dffad43d46ba66c084c0aa16d826000015183602001518460400151856060015186608001518760a00151604051808781526020018673ffffffffffffffffffffffffffffffffffffffff1673ffffffffffffffffffffffffffffffffffffffff1681526020018573ffffffffffffffffffffffffffffffffffffffff1673ffffffffffffffffffffffffffffffffffffffff168152602001806020018060200184151515158152602001838103835286818151815260200191508051906020019080838360005b838110156112bb5780820151818401526020810190506112a0565b50505050905090810190601f1680156112e85780820380516001836020036101000a031916815260200191505b50838103825285818151815260200191508051906020019080838360005b83811015611321578082015181840152602081019050611306565b50505050905090810190601f16801561134e5780820380516001836020036101000a031916815260200191505b509850505050505050505060405180910390a1505050565b600047905090565b600082511161137c57600080fd5b600081511161138a57600080fd5b6000851161139757600080fd5b6040518060c001604052808681526020018573ffffffffffffffffffffffffffffffffffffffff1681526020018473ffffffffffffffffffffffffffffffffffffffff168152602001838152602001828152602001600015158152506001826040518082805190602001908083835b602083106114295780518252602082019150602081019050602083039250611406565b6001836020036101000a03801982511681845116808217855250505050505090500191505090815260200160405180910390206000820151816000015560208201518160010160006101000a81548173ffffffffffffffffffffffffffffffffffffffff021916908373ffffffffffffffffffffffffffffffffffffffff16021790555060408201518160020160006101000a81548173ffffffffffffffffffffffffffffffffffffffff021916908373ffffffffffffffffffffffffffffffffffffffff1602179055506060820151816003019080519060200190611510929190611d3b565b50608082015181600401908051906020019061152d929190611d3b565b5060a08201518160050160006101000a81548160ff0219169083151502179055509050507f5b834b2b12e75422454f1018f3dfe128d9cd3267b4a85abf710ef136d06b5c0b85858585856000604051808781526020018673ffffffffffffffffffffffffffffffffffffffff1673ffffffffffffffffffffffffffffffffffffffff1681526020018573ffffffffffffffffffffffffffffffffffffffff1673ffffffffffffffffffffffffffffffffffffffff168152602001806020018060200184151515158152602001838103835286818151815260200191508051906020019080838360005b83811015611631578082015181840152602081019050611616565b50505050905090810190601f16801561165e5780820380516001836020036101000a031916815260200191505b50838103825285818151815260200191508051906020019080838360005b8381101561169757808201518184015260208101905061167c565b50505050905090810190601f1680156116c45780820380516001836020036101000a031916815260200191505b509850505050505050505060405180910390a15050505050565b6116e6611cd7565b6001826040518082805190602001908083835b6020831061171c57805182526020820191506020810190506020830392506116f9565b6001836020036101000a03801982511681845116808217855250505050505090500191505090815260200160405180910390206040518060c0016040529081600082015481526020016001820160009054906101000a900473ffffffffffffffffffffffffffffffffffffffff1673ffffffffffffffffffffffffffffffffffffffff1673ffffffffffffffffffffffffffffffffffffffff1681526020016002820160009054906101000a900473ffffffffffffffffffffffffffffffffffffffff1673ffffffffffffffffffffffffffffffffffffffff1673ffffffffffffffffffffffffffffffffffffffff168152602001600382018054600181600116156101000203166002900480601f0160208091040260200160405190810160405280929190818152602001828054600181600116156101000203166002900480156118a95780601f1061187e576101008083540402835291602001916118a9565b820191906000526020600020905b81548152906001019060200180831161188c57829003601f168201915b50505050508152602001600482018054600181600116156101000203166002900480601f01602080910402602001604051908101604052809291908181526020018280546001816001161561010002031660029004801561194b5780601f106119205761010080835404028352916020019161194b565b820191906000526020600020905b81548152906001019060200180831161192e57829003601f168201915b505050505081526020016005820160009054906101000a900460ff16151515158152505090506000816020015190508073ffffffffffffffffffffffffffffffffffffffff166108fc83600001519081150290604051600060405180830381858888f193505050501580156119c4573d6000803e3d6000fd5b5060018260a0019015159081151581525050816001846040518082805190602001908083835b60208310611a0d57805182526020820191506020810190506020830392506119ea565b6001836020036101000a03801982511681845116808217855250505050505090500191505090815260200160405180910390206000820151816000015560208201518160010160006101000a81548173ffffffffffffffffffffffffffffffffffffffff021916908373ffffffffffffffffffffffffffffffffffffffff16021790555060408201518160020160006101000a81548173ffffffffffffffffffffffffffffffffffffffff021916908373ffffffffffffffffffffffffffffffffffffffff1602179055506060820151816003019080519060200190611af4929190611d3b565b506080820151816004019080519060200190611b11929190611d3b565b5060a08201518160050160006101000a81548160ff0219169083151502179055509050507fb795cddc9ade85a4e77e4b65075da4ccc028698dffad43d46ba66c084c0aa16d826000015183602001518460400151856060015186608001518760a00151604051808781526020018673ffffffffffffffffffffffffffffffffffffffff1673ffffffffffffffffffffffffffffffffffffffff1681526020018573ffffffffffffffffffffffffffffffffffffffff1673ffffffffffffffffffffffffffffffffffffffff168152602001806020018060200184151515158152602001838103835286818151815260200191508051906020019080838360005b83811015611c2c578082015181840152602081019050611c11565b50505050905090810190601f168015611c595780820380516001836020036101000a031916815260200191505b50838103825285818151815260200191508051906020019080838360005b83811015611c92578082015181840152602081019050611c77565b50505050905090810190601f168015611cbf5780820380516001836020036101000a031916815260200191505b509850505050505050505060405180910390a1505050565b6040518060c0016040528060008152602001600073ffffffffffffffffffffffffffffffffffffffff168152602001600073ffffffffffffffffffffffffffffffffffffffff16815260200160608152602001606081526020016000151581525090565b828054600181600116156101000203166002900490600052602060002090601f016020900481019282601f10611d7c57805160ff1916838001178555611daa565b82800160010185558215611daa579182015b82811115611da9578251825591602001919060010190611d8e565b5b509050611db79190611dbb565b5090565b611ddd91905b80821115611dd9576000816000905550600101611dc1565b5090565b9056fea265627a7a72315820fbc59fcd0fd15b3abb1cb21050bfbff963a6c8b70c081cc888e25dacb974b21764736f6c63430005100032",
  "source": "pragma solidity ^0.5.11;\n\ncontract Mycontract {\n\n    string public name;\n\n    constructor() public {\n        name = \"Doubt Session Contract\" ;\n    }\n\n    mapping (string => Session) public sessions ;\n    //mapping (string => CrowdSessionPayments) payments ;\n\n    struct Session {\n        uint amount;\n        address payable doubtAsker;\n        address payable doubtSolver;\n        string topic;\n        string id;\n        bool isCompleted;\n    }\n\n    event SessionCreated (\n        uint amount,\n        address payable doubtAsker,\n        address payable doubtSolver,\n        string topic,\n        string id,\n        bool isCompleted\n    );\n\n    event SessionEnded (\n        uint amount,\n        address payable doubtAsker,\n        address payable doubtSolver,\n        string topic,\n        string id,\n        bool isCompleted\n    );\n\n    function balance() external view returns(uint){\n        return address(this).balance;\n    }\n\n    function createSession(uint amount, address payable doubtAsker,address payable doubtSolver,string memory topic,string memory id) public payable{\n        // Check for valid info\n        require(bytes(topic).length > 0);\n        require(bytes(id).length > 0);\n        require(amount > 0);\n        // Check transaction amount\n        //require(msg.value == amount);\n        // Create session\n        sessions[id] = Session(amount,doubtAsker,doubtSolver,topic,id,false);\n        // Trigger and emit event\n        emit SessionCreated(amount, doubtAsker, doubtSolver, topic, id, false);\n    }\n\n    function getSesionData(string calldata id) external view returns(uint, address, address, string memory, string memory, bool ){\n        Session memory _session = sessions[id];\n        return (_session.amount, _session.doubtAsker, _session.doubtSolver, _session.topic, _session.id, _session.isCompleted);\n    }\n\n    function endSession(string memory id) public {\n        // Fetch the session\n        Session memory _session = sessions[id];\n        // Fetch address of doubt solver\n        address payable _doubtSolver = _session.doubtSolver;\n        // Pay the doubt solver by sending them Ether\n        address(_doubtSolver).transfer(_session.amount);\n        // Update the completion\n        _session.isCompleted = true;\n        // Update the session\n        sessions[id] = _session;\n        // Trigger and emit event\n        emit SessionEnded(_session.amount, _session.doubtAsker, _session.doubtSolver, _session.topic, _session.id, _session.isCompleted);\n    }\n\n    function refund(string memory id) public {\n        // Fetch the session\n        Session memory _session = sessions[id];\n        // Fetch address of doubt solver\n        address payable _doubtAsker = _session.doubtAsker;\n        // Pay the doubt solver by sending them Ether\n        address(_doubtAsker).transfer(_session.amount);\n        // Update the completion\n        _session.isCompleted = true;\n        // Update the session\n        sessions[id] = _session;\n        // Trigger and emit event\n        emit SessionEnded(_session.amount, _session.doubtAsker, _session.doubtSolver, _session.topic, _session.id, _session.isCompleted);\n    }\n\n    // struct CrowdSession {\n    //     uint amountAsked;\n    //     uint amountFunded;\n    //     address payable [] participants;\n    //     address payable doubtSolver;\n    //     string topic;\n    //     string id;\n    //     bool compeleted ;\n    // }\n\n    // struct CrowdSessionPayments {\n    //     uint amount;\n    //     address participant;\n    //     string paymentId;\n    // }\n\n    // event CrowdSessionCreated (\n    //     uint amountAsked,\n    //     uint amountFunded,\n    //     address payable [] participants,\n    //     address payable doubtSolver,\n    //     string topic,\n    //     string id,\n    //     bool compeleted\n    // );\n\n    // event CrowdSessionEnded (\n    //     uint amountAsked,\n    //     uint amountFunded,\n    //     address payable [] participants,\n    //     address payable doubtSolver,\n    //     string topic,\n    //     string id,\n    //     bool compeleted\n    // );\n\n    // event CrowdSessionFunded (\n    //     uint amountAsked,\n    //     uint amountFunded,\n    //     address payable [] participants,\n    //     address payable doubtSolver,\n    //     string topic,\n    //     string id,\n    //     bool compeleted\n    // );\n\n    // function createCrowdSession(uint amount,string memory topic,string memory id) public {\n    //     // Check for valid info\n    //     require(bytes(topic).length > 0);\n    //     require(bytes(id).length > 0);\n    //     require(amount > 0);\n    //     // Check transaction amount\n    //     //require(msg.value == amount);\n    //     // Create session\n    //     sessions[id] = Session(amount,0,[],msg.sender,topic,id,false);\n    //     // Trigger and emit event\n    //     emit CrowdSessionCreated(amount,0, [], msg.sender, topic, id, false);\n    // }\n\n    // function fundCrowdSession(string memory crowdSessionId, string memory paymentId) payable public {\n    //     Session memory _session = sessions[id];\n    //     payments[paymentId] = CrowdSessionPayments(msg.value, msg.sender, crowdSessionId, paymentId);\n    //     _session.amountFunded += msg.value;\n    //     _session.participants.push(msg.sender);\n    //     sessions[id] = _session;\n    //     emit CrowdSessionFunded(_session.amountAsked,_session.amountFunded, _session.participants, _session.doubtSolver, _session.topic, _session.id, _session.completed);\n    // }\n\n    // function refundCrowdSession(string memory id) public {\n    //     Session memory _session = sessions[id];\n    //     address payable _participants = _session.participants;\n    //     for(let i=0;i<_participants.length;i++){\n    //         address(payments(_participants[i].participant)).transfer(payments(_participants[i].amount));\n    //     }\n    //     _session.completed= true;\n    //     Update the session\n    //     sessions[id] = _session;\n    //     // Trigger and emit event\n    //     emit CrowdSessionEnded(_session.amountAsked,_session.amountFunded, _session.participants, _session.doubtSolver, _session.topic, _session.id, _session.completed);\n    // }\n\n    // function endCrowdSession(string memory id) payable public {\n    //     // Fetch the session\n    //     Session memory _session = sessions[id];\n    //     // Fetch address of doubt solver\n    //     address payable _doubtSolver = _session.doubtSolver;\n    //     // Pay the doubt solver by sending them Ether\n    //     address(_doubtSolver).transfer(_session.amountAsked);\n    //     // Update the completion\n    //     _session.completed = true;\n    //     // Update the session\n    //     sessions[id] = _session;\n    //     // Trigger and emit event\n    //     emit CrowdSessionEnded(_session.amountAsked,_session.amountFunded, _session.participants, _session.doubtSolver, _session.topic, _session.id, _session.completed);\n    // }\n\n}",
  "sourcePath": "/Users/siddhantjain/Documents/intro-app/search_engine/client/src/contracts/Doubt.sol",
  "compiler": {
    "name": "solc",
    "version": "0.5.16+commit.9c3226ce.Emscripten.clang"
  },
  "schemaVersion": "3.4.4",
  "updatedAt": "2022-04-30T16:03:23.523Z",
  "networkType": "ethereum",
  "devdoc": {
    "methods": {}
  },
  "userdoc": {
    "methods": {}
  }
}