{
  "contractName": "Mycontract",
  "abi": [
    {
      "inputs": [],
      "payable": false,
      "stateMutability": "nonpayable",
      "type": "constructor"
    },
    {
      "anonymous": false,
      "inputs": [
        {
          "indexed": false,
          "internalType": "uint256",
          "name": "amount",
          "type": "uint256"
        },
        {
          "indexed": false,
          "internalType": "address",
          "name": "doubtAsker",
          "type": "address"
        },
        {
          "indexed": false,
          "internalType": "address payable",
          "name": "doubtSolver",
          "type": "address"
        },
        {
          "indexed": false,
          "internalType": "string",
          "name": "topic",
          "type": "string"
        },
        {
          "indexed": false,
          "internalType": "string",
          "name": "id",
          "type": "string"
        },
        {
          "indexed": false,
          "internalType": "bool",
          "name": "isCompleted",
          "type": "bool"
        }
      ],
      "name": "SessionCreated",
      "type": "event"
    },
    {
      "anonymous": false,
      "inputs": [
        {
          "indexed": false,
          "internalType": "uint256",
          "name": "amount",
          "type": "uint256"
        },
        {
          "indexed": false,
          "internalType": "address",
          "name": "doubtAsker",
          "type": "address"
        },
        {
          "indexed": false,
          "internalType": "address payable",
          "name": "doubtSolver",
          "type": "address"
        },
        {
          "indexed": false,
          "internalType": "string",
          "name": "topic",
          "type": "string"
        },
        {
          "indexed": false,
          "internalType": "string",
          "name": "id",
          "type": "string"
        },
        {
          "indexed": false,
          "internalType": "bool",
          "name": "isCompleted",
          "type": "bool"
        }
      ],
      "name": "SessionEnded",
      "type": "event"
    },
    {
      "constant": true,
      "inputs": [],
      "name": "name",
      "outputs": [
        {
          "internalType": "string",
          "name": "",
          "type": "string"
        }
      ],
      "payable": false,
      "stateMutability": "view",
      "type": "function"
    },
    {
      "constant": true,
      "inputs": [
        {
          "internalType": "string",
          "name": "",
          "type": "string"
        }
      ],
      "name": "sessions",
      "outputs": [
        {
          "internalType": "uint256",
          "name": "amount",
          "type": "uint256"
        },
        {
          "internalType": "address",
          "name": "doubtAsker",
          "type": "address"
        },
        {
          "internalType": "address payable",
          "name": "doubtSolver",
          "type": "address"
        },
        {
          "internalType": "string",
          "name": "topic",
          "type": "string"
        },
        {
          "internalType": "string",
          "name": "id",
          "type": "string"
        },
        {
          "internalType": "bool",
          "name": "isCompleted",
          "type": "bool"
        }
      ],
      "payable": false,
      "stateMutability": "view",
      "type": "function"
    },
    {
      "constant": true,
      "inputs": [],
      "name": "balance",
      "outputs": [
        {
          "internalType": "uint256",
          "name": "",
          "type": "uint256"
        }
      ],
      "payable": false,
      "stateMutability": "view",
      "type": "function"
    },
    {
      "constant": false,
      "inputs": [
        {
          "internalType": "uint256",
          "name": "amount",
          "type": "uint256"
        },
        {
          "internalType": "address",
          "name": "doubtAsker",
          "type": "address"
        },
        {
          "internalType": "address payable",
          "name": "doubtSolver",
          "type": "address"
        },
        {
          "internalType": "string",
          "name": "topic",
          "type": "string"
        },
        {
          "internalType": "string",
          "name": "id",
          "type": "string"
        }
      ],
      "name": "createSession",
      "outputs": [],
      "payable": true,
      "stateMutability": "payable",
      "type": "function"
    },
    {
      "constant": true,
      "inputs": [
        {
          "internalType": "string",
          "name": "id",
          "type": "string"
        }
      ],
      "name": "getSesionData",
      "outputs": [
        {
          "internalType": "uint256",
          "name": "",
          "type": "uint256"
        },
        {
          "internalType": "address",
          "name": "",
          "type": "address"
        },
        {
          "internalType": "address",
          "name": "",
          "type": "address"
        },
        {
          "internalType": "string",
          "name": "",
          "type": "string"
        },
        {
          "internalType": "string",
          "name": "",
          "type": "string"
        },
        {
          "internalType": "bool",
          "name": "",
          "type": "bool"
        }
      ],
      "payable": false,
      "stateMutability": "view",
      "type": "function"
    },
    {
      "constant": false,
      "inputs": [
        {
          "internalType": "string",
          "name": "id",
          "type": "string"
        }
      ],
      "name": "endSession",
      "outputs": [],
      "payable": false,
      "stateMutability": "nonpayable",
      "type": "function"
    }
  ],
  "bytecode": "0x60806040523480156200001157600080fd5b506040518060400160405280601681526020017f446f7562742053657373696f6e20436f6e747261637400000000000000000000815250600090805190602001906200005f92919062000066565b5062000115565b828054600181600116156101000203166002900490600052602060002090601f016020900481019282601f10620000a957805160ff1916838001178555620000da565b82800160010185558215620000da579182015b82811115620000d9578251825591602001919060010190620000bc565b5b509050620000e99190620000ed565b5090565b6200011291905b808211156200010e576000816000905550600101620000f4565b5090565b90565b61167180620001256000396000f3fe6080604052600436106100555760003560e01c806306fdde031461005a5780631865d961146100ea5780634f4ba348146102cd5780636c0994ca146104f2578063b69ef8a814610578578063cd2d4151146105a3575b600080fd5b34801561006657600080fd5b5061006f61073f565b6040518080602001828103825283818151815260200191508051906020019080838360005b838110156100af578082015181840152602081019050610094565b50505050905090810190601f1680156100dc5780820380516001836020036101000a031916815260200191505b509250505060405180910390f35b3480156100f657600080fd5b5061016e6004803603602081101561010d57600080fd5b810190808035906020019064010000000081111561012a57600080fd5b82018360208201111561013c57600080fd5b8035906020019184600183028401116401000000008311171561015e57600080fd5b90919293919293905050506107dd565b604051808781526020018673ffffffffffffffffffffffffffffffffffffffff1673ffffffffffffffffffffffffffffffffffffffff1681526020018573ffffffffffffffffffffffffffffffffffffffff1673ffffffffffffffffffffffffffffffffffffffff168152602001806020018060200184151515158152602001838103835286818151815260200191508051906020019080838360005b8381101561022657808201518184015260208101905061020b565b50505050905090810190601f1680156102535780820380516001836020036101000a031916815260200191505b50838103825285818151815260200191508051906020019080838360005b8381101561028c578082015181840152602081019050610271565b50505050905090810190601f1680156102b95780820380516001836020036101000a031916815260200191505b509850505050505050505060405180910390f35b3480156102d957600080fd5b50610393600480360360208110156102f057600080fd5b810190808035906020019064010000000081111561030d57600080fd5b82018360208201111561031f57600080fd5b8035906020019184600183028401116401000000008311171561034157600080fd5b91908080601f016020809104026020016040519081016040528093929190818152602001838380828437600081840152601f19601f820116905080830192505050505050509192919290505050610a76565b604051808781526020018673ffffffffffffffffffffffffffffffffffffffff1673ffffffffffffffffffffffffffffffffffffffff1681526020018573ffffffffffffffffffffffffffffffffffffffff1673ffffffffffffffffffffffffffffffffffffffff168152602001806020018060200184151515158152602001838103835286818151815260200191508051906020019080838360005b8381101561044b578082015181840152602081019050610430565b50505050905090810190601f1680156104785780820380516001836020036101000a031916815260200191505b50838103825285818151815260200191508051906020019080838360005b838110156104b1578082015181840152602081019050610496565b50505050905090810190601f1680156104de5780820380516001836020036101000a031916815260200191505b509850505050505050505060405180910390f35b3480156104fe57600080fd5b506105766004803603602081101561051557600080fd5b810190808035906020019064010000000081111561053257600080fd5b82018360208201111561054457600080fd5b8035906020019184600183028401116401000000008311171561056657600080fd5b9091929391929390505050610c45565b005b34801561058457600080fd5b5061058d6111bb565b6040518082815260200191505060405180910390f35b61073d600480360360a08110156105b957600080fd5b8101908080359060200190929190803573ffffffffffffffffffffffffffffffffffffffff169060200190929190803573ffffffffffffffffffffffffffffffffffffffff1690602001909291908035906020019064010000000081111561062057600080fd5b82018360208201111561063257600080fd5b8035906020019184600183028401116401000000008311171561065457600080fd5b91908080601f016020809104026020016040519081016040528093929190818152602001838380828437600081840152601f19601f820116905080830192505050505050509192919290803590602001906401000000008111156106b757600080fd5b8201836020820111156106c957600080fd5b803590602001918460018302840111640100000000831117156106eb57600080fd5b91908080601f016020809104026020016040519081016040528093929190818152602001838380828437600081840152601f19601f8201169050808301925050505050505091929192905050506111c3565b005b60008054600181600116156101000203166002900480601f0160208091040260200160405190810160405280929190818152602001828054600181600116156101000203166002900480156107d55780601f106107aa576101008083540402835291602001916107d5565b820191906000526020600020905b8154815290600101906020018083116107b857829003601f168201915b505050505081565b600080600060608060006107ef611533565b6001898960405180838380828437808301925050509250505090815260200160405180910390206040518060c0016040529081600082015481526020016001820160009054906101000a900473ffffffffffffffffffffffffffffffffffffffff1673ffffffffffffffffffffffffffffffffffffffff1673ffffffffffffffffffffffffffffffffffffffff1681526020016002820160009054906101000a900473ffffffffffffffffffffffffffffffffffffffff1673ffffffffffffffffffffffffffffffffffffffff1673ffffffffffffffffffffffffffffffffffffffff168152602001600382018054600181600116156101000203166002900480601f0160208091040260200160405190810160405280929190818152602001828054600181600116156101000203166002900480156109705780601f1061094557610100808354040283529160200191610970565b820191906000526020600020905b81548152906001019060200180831161095357829003601f168201915b50505050508152602001600482018054600181600116156101000203166002900480601f016020809104026020016040519081016040528092919081815260200182805460018160011615610100020316600290048015610a125780601f106109e757610100808354040283529160200191610a12565b820191906000526020600020905b8154815290600101906020018083116109f557829003601f168201915b505050505081526020016005820160009054906101000a900460ff1615151515815250509050806000015181602001518260400151836060015184608001518560a00151839350829250819150965096509650965096509650509295509295509295565b6001818051602081018201805184825260208301602085012081835280955050505050506000915090508060000154908060010160009054906101000a900473ffffffffffffffffffffffffffffffffffffffff16908060020160009054906101000a900473ffffffffffffffffffffffffffffffffffffffff1690806003018054600181600116156101000203166002900480601f016020809104026020016040519081016040528092919081815260200182805460018160011615610100020316600290048015610b8a5780601f10610b5f57610100808354040283529160200191610b8a565b820191906000526020600020905b815481529060010190602001808311610b6d57829003601f168201915b505050505090806004018054600181600116156101000203166002900480601f016020809104026020016040519081016040528092919081815260200182805460018160011615610100020316600290048015610c285780601f10610bfd57610100808354040283529160200191610c28565b820191906000526020600020905b815481529060010190602001808311610c0b57829003601f168201915b5050505050908060050160009054906101000a900460ff16905086565b610c4d611533565b6001838360405180838380828437808301925050509250505090815260200160405180910390206040518060c0016040529081600082015481526020016001820160009054906101000a900473ffffffffffffffffffffffffffffffffffffffff1673ffffffffffffffffffffffffffffffffffffffff1673ffffffffffffffffffffffffffffffffffffffff1681526020016002820160009054906101000a900473ffffffffffffffffffffffffffffffffffffffff1673ffffffffffffffffffffffffffffffffffffffff1673ffffffffffffffffffffffffffffffffffffffff168152602001600382018054600181600116156101000203166002900480601f016020809104026020016040519081016040528092919081815260200182805460018160011615610100020316600290048015610dce5780601f10610da357610100808354040283529160200191610dce565b820191906000526020600020905b815481529060010190602001808311610db157829003601f168201915b50505050508152602001600482018054600181600116156101000203166002900480601f016020809104026020016040519081016040528092919081815260200182805460018160011615610100020316600290048015610e705780601f10610e4557610100808354040283529160200191610e70565b820191906000526020600020905b815481529060010190602001808311610e5357829003601f168201915b505050505081526020016005820160009054906101000a900460ff16151515158152505090506000816040015190508073ffffffffffffffffffffffffffffffffffffffff166108fc83600001519081150290604051600060405180830381858888f19350505050158015610ee9573d6000803e3d6000fd5b5060018260a0019015159081151581525050816001858560405180838380828437808301925050509250505090815260200160405180910390206000820151816000015560208201518160010160006101000a81548173ffffffffffffffffffffffffffffffffffffffff021916908373ffffffffffffffffffffffffffffffffffffffff16021790555060408201518160020160006101000a81548173ffffffffffffffffffffffffffffffffffffffff021916908373ffffffffffffffffffffffffffffffffffffffff1602179055506060820151816003019080519060200190610fd7929190611597565b506080820151816004019080519060200190610ff4929190611597565b5060a08201518160050160006101000a81548160ff0219169083151502179055509050507fb795cddc9ade85a4e77e4b65075da4ccc028698dffad43d46ba66c084c0aa16d826000015183602001518460400151856060015186608001518760a00151604051808781526020018673ffffffffffffffffffffffffffffffffffffffff1673ffffffffffffffffffffffffffffffffffffffff1681526020018573ffffffffffffffffffffffffffffffffffffffff1673ffffffffffffffffffffffffffffffffffffffff168152602001806020018060200184151515158152602001838103835286818151815260200191508051906020019080838360005b8381101561110f5780820151818401526020810190506110f4565b50505050905090810190601f16801561113c5780820380516001836020036101000a031916815260200191505b50838103825285818151815260200191508051906020019080838360005b8381101561117557808201518184015260208101905061115a565b50505050905090810190601f1680156111a25780820380516001836020036101000a031916815260200191505b509850505050505050505060405180910390a150505050565b600047905090565b60008251116111d157600080fd5b60008151116111df57600080fd5b600085116111ec57600080fd5b6040518060c001604052808681526020018573ffffffffffffffffffffffffffffffffffffffff1681526020018473ffffffffffffffffffffffffffffffffffffffff168152602001838152602001828152602001600015158152506001826040518082805190602001908083835b6020831061127e578051825260208201915060208101905060208303925061125b565b6001836020036101000a03801982511681845116808217855250505050505090500191505090815260200160405180910390206000820151816000015560208201518160010160006101000a81548173ffffffffffffffffffffffffffffffffffffffff021916908373ffffffffffffffffffffffffffffffffffffffff16021790555060408201518160020160006101000a81548173ffffffffffffffffffffffffffffffffffffffff021916908373ffffffffffffffffffffffffffffffffffffffff1602179055506060820151816003019080519060200190611365929190611597565b506080820151816004019080519060200190611382929190611597565b5060a08201518160050160006101000a81548160ff0219169083151502179055509050507f5b834b2b12e75422454f1018f3dfe128d9cd3267b4a85abf710ef136d06b5c0b85858585856000604051808781526020018673ffffffffffffffffffffffffffffffffffffffff1673ffffffffffffffffffffffffffffffffffffffff1681526020018573ffffffffffffffffffffffffffffffffffffffff1673ffffffffffffffffffffffffffffffffffffffff168152602001806020018060200184151515158152602001838103835286818151815260200191508051906020019080838360005b8381101561148657808201518184015260208101905061146b565b50505050905090810190601f1680156114b35780820380516001836020036101000a031916815260200191505b50838103825285818151815260200191508051906020019080838360005b838110156114ec5780820151818401526020810190506114d1565b50505050905090810190601f1680156115195780820380516001836020036101000a031916815260200191505b509850505050505050505060405180910390a15050505050565b6040518060c0016040528060008152602001600073ffffffffffffffffffffffffffffffffffffffff168152602001600073ffffffffffffffffffffffffffffffffffffffff16815260200160608152602001606081526020016000151581525090565b828054600181600116156101000203166002900490600052602060002090601f016020900481019282601f106115d857805160ff1916838001178555611606565b82800160010185558215611606579182015b828111156116055782518255916020019190600101906115ea565b5b5090506116139190611617565b5090565b61163991905b8082111561163557600081600090555060010161161d565b5090565b9056fea265627a7a723158201f3fe4f10b1f226faecc290359d5799de3cee8ae0b973a4fbf4418981fb5febb64736f6c63430005100032",
  "source": "pragma solidity ^0.5.11;\n\ncontract Mycontract {\n\n    string public name;\n\n    constructor() public {\n        name = \"Doubt Session Contract\" ;\n    }\n\n    mapping (string => Session) public sessions ;\n    //mapping (string => CrowdSessionPayments) payments ;\n\n    struct Session {\n        uint amount;\n        address doubtAsker;\n        address payable doubtSolver;\n        string topic;\n        string id;\n        bool isCompleted;\n    }\n\n    event SessionCreated (\n        uint amount,\n        address doubtAsker,\n        address payable doubtSolver,\n        string topic,\n        string id,\n        bool isCompleted\n    );\n\n    event SessionEnded (\n        uint amount,\n        address doubtAsker,\n        address payable doubtSolver,\n        string topic,\n        string id,\n        bool isCompleted\n    );\n\n    function balance() external view returns(uint){\n        return address(this).balance;\n    }\n\n    function createSession(uint amount, address doubtAsker,address payable doubtSolver,string memory topic,string memory id) public payable{\n        // Check for valid info\n        require(bytes(topic).length > 0);\n        require(bytes(id).length > 0);\n        require(amount > 0);\n        // Check transaction amount\n        //require(msg.value == amount);\n        // Create session\n        sessions[id] = Session(amount,doubtAsker,doubtSolver,topic,id,false);\n        // Trigger and emit event\n        emit SessionCreated(amount, doubtAsker, doubtSolver, topic, id, false);\n    }\n\n    function getSesionData(string calldata id) external view returns(uint, address, address, string memory, string memory, bool ){\n        Session memory _session = sessions[id];\n        return (_session.amount, _session.doubtAsker, _session.doubtSolver, _session.topic, _session.id, _session.isCompleted);\n    }\n\n    function endSession(string calldata id) external {\n        // Fetch the session\n        Session memory _session = sessions[id];\n        // Fetch address of doubt solver\n        address payable _doubtSolver = _session.doubtSolver;\n        // Pay the doubt solver by sending them Ether\n        address(_doubtSolver).transfer(_session.amount);\n        // Update the completion\n        _session.isCompleted = true;\n        // Update the session\n        sessions[id] = _session;\n        // Trigger and emit event\n        emit SessionEnded(_session.amount, _session.doubtAsker, _session.doubtSolver, _session.topic, _session.id, _session.isCompleted);\n    }\n\n    // struct CrowdSession {\n    //     uint amountAsked;\n    //     uint amountFunded;\n    //     address payable [] participants;\n    //     address payable doubtSolver;\n    //     string topic;\n    //     string id;\n    //     bool compeleted ;\n    // }\n\n    // struct CrowdSessionPayments {\n    //     uint amount;\n    //     address participant;\n    //     string paymentId;\n    // }\n\n    // event CrowdSessionCreated (\n    //     uint amountAsked,\n    //     uint amountFunded,\n    //     address payable [] participants,\n    //     address payable doubtSolver,\n    //     string topic,\n    //     string id,\n    //     bool compeleted\n    // );\n\n    // event CrowdSessionEnded (\n    //     uint amountAsked,\n    //     uint amountFunded,\n    //     address payable [] participants,\n    //     address payable doubtSolver,\n    //     string topic,\n    //     string id,\n    //     bool compeleted\n    // );\n\n    // event CrowdSessionFunded (\n    //     uint amountAsked,\n    //     uint amountFunded,\n    //     address payable [] participants,\n    //     address payable doubtSolver,\n    //     string topic,\n    //     string id,\n    //     bool compeleted\n    // );\n\n    // function createCrowdSession(uint amount,string memory topic,string memory id) public {\n    //     // Check for valid info\n    //     require(bytes(topic).length > 0);\n    //     require(bytes(id).length > 0);\n    //     require(amount > 0);\n    //     // Check transaction amount\n    //     //require(msg.value == amount);\n    //     // Create session\n    //     sessions[id] = Session(amount,0,[],msg.sender,topic,id,false);\n    //     // Trigger and emit event\n    //     emit CrowdSessionCreated(amount,0, [], msg.sender, topic, id, false);\n    // }\n\n    // function fundCrowdSession(string memory crowdSessionId, string memory paymentId) payable public {\n    //     Session memory _session = sessions[id];\n    //     payments[paymentId] = CrowdSessionPayments(msg.value, msg.sender, crowdSessionId, paymentId);\n    //     _session.amountFunded += msg.value;\n    //     _session.participants.push(msg.sender);\n    //     sessions[id] = _session;\n    //     emit CrowdSessionFunded(_session.amountAsked,_session.amountFunded, _session.participants, _session.doubtSolver, _session.topic, _session.id, _session.completed);\n    // }\n\n    // function refundCrowdSession(string memory id) public {\n    //     Session memory _session = sessions[id];\n    //     address payable _participants = _session.participants;\n    //     for(let i=0;i<_participants.length;i++){\n    //         address(payments(_participants[i].participant)).transfer(payments(_participants[i].amount));\n    //     }\n    //     _session.completed= true;\n    //     Update the session\n    //     sessions[id] = _session;\n    //     // Trigger and emit event\n    //     emit CrowdSessionEnded(_session.amountAsked,_session.amountFunded, _session.participants, _session.doubtSolver, _session.topic, _session.id, _session.completed);\n    // }\n\n    // function endCrowdSession(string memory id) payable public {\n    //     // Fetch the session\n    //     Session memory _session = sessions[id];\n    //     // Fetch address of doubt solver\n    //     address payable _doubtSolver = _session.doubtSolver;\n    //     // Pay the doubt solver by sending them Ether\n    //     address(_doubtSolver).transfer(_session.amountAsked);\n    //     // Update the completion\n    //     _session.completed = true;\n    //     // Update the session\n    //     sessions[id] = _session;\n    //     // Trigger and emit event\n    //     emit CrowdSessionEnded(_session.amountAsked,_session.amountFunded, _session.participants, _session.doubtSolver, _session.topic, _session.id, _session.completed);\n    // }\n\n}",
  "sourcePath": "/Users/siddhantjain/Documents/intro-app/search_engine/client/src/contracts/Doubt.sol",
  "compiler": {
    "name": "solc",
    "version": "0.5.16+commit.9c3226ce.Emscripten.clang"
  },
  "schemaVersion": "3.4.4",
  "updatedAt": "2022-04-30T09:09:23.864Z",
  "networkType": "ethereum",
  "devdoc": {
    "methods": {}
  },
  "userdoc": {
    "methods": {}
  }
}